{
  "contractName": "LipToken",
  "abi": [
    {
      "inputs": [
        {
          "internalType": "string",
          "name": "_name",
          "type": "string"
        },
        {
          "internalType": "string",
          "name": "_symbol",
          "type": "string"
        }
      ],
      "stateMutability": "nonpayable",
      "type": "constructor"
    },
    {
      "anonymous": false,
      "inputs": [
        {
          "indexed": true,
          "internalType": "address",
          "name": "owner",
          "type": "address"
        },
        {
          "indexed": true,
          "internalType": "address",
          "name": "approved",
          "type": "address"
        },
        {
          "indexed": true,
          "internalType": "uint256",
          "name": "tokenId",
          "type": "uint256"
        }
      ],
      "name": "Approval",
      "type": "event"
    },
    {
      "anonymous": false,
      "inputs": [
        {
          "indexed": true,
          "internalType": "address",
          "name": "owner",
          "type": "address"
        },
        {
          "indexed": true,
          "internalType": "address",
          "name": "operator",
          "type": "address"
        },
        {
          "indexed": false,
          "internalType": "bool",
          "name": "approved",
          "type": "bool"
        }
      ],
      "name": "ApprovalForAll",
      "type": "event"
    },
    {
      "anonymous": false,
      "inputs": [
        {
          "indexed": true,
          "internalType": "address",
          "name": "owner",
          "type": "address"
        },
        {
          "indexed": false,
          "internalType": "uint256",
          "name": "id",
          "type": "uint256"
        },
        {
          "indexed": false,
          "internalType": "uint256",
          "name": "dna",
          "type": "uint256"
        }
      ],
      "name": "NewLip",
      "type": "event"
    },
    {
      "anonymous": false,
      "inputs": [
        {
          "indexed": true,
          "internalType": "address",
          "name": "previousOwner",
          "type": "address"
        },
        {
          "indexed": true,
          "internalType": "address",
          "name": "newOwner",
          "type": "address"
        }
      ],
      "name": "OwnershipTransferred",
      "type": "event"
    },
    {
      "anonymous": false,
      "inputs": [
        {
          "indexed": true,
          "internalType": "address",
          "name": "from",
          "type": "address"
        },
        {
          "indexed": true,
          "internalType": "address",
          "name": "to",
          "type": "address"
        },
        {
          "indexed": true,
          "internalType": "uint256",
          "name": "tokenId",
          "type": "uint256"
        }
      ],
      "name": "Transfer",
      "type": "event"
    },
    {
      "inputs": [
        {
          "internalType": "address",
          "name": "to",
          "type": "address"
        },
        {
          "internalType": "uint256",
          "name": "tokenId",
          "type": "uint256"
        }
      ],
      "name": "approve",
      "outputs": [],
      "stateMutability": "nonpayable",
      "type": "function"
    },
    {
      "inputs": [
        {
          "internalType": "address",
          "name": "owner",
          "type": "address"
        }
      ],
      "name": "balanceOf",
      "outputs": [
        {
          "internalType": "uint256",
          "name": "",
          "type": "uint256"
        }
      ],
      "stateMutability": "view",
      "type": "function",
      "constant": true
    },
    {
      "inputs": [
        {
          "internalType": "uint256",
          "name": "tokenId",
          "type": "uint256"
        }
      ],
      "name": "getApproved",
      "outputs": [
        {
          "internalType": "address",
          "name": "",
          "type": "address"
        }
      ],
      "stateMutability": "view",
      "type": "function",
      "constant": true
    },
    {
      "inputs": [
        {
          "internalType": "address",
          "name": "owner",
          "type": "address"
        },
        {
          "internalType": "address",
          "name": "operator",
          "type": "address"
        }
      ],
      "name": "isApprovedForAll",
      "outputs": [
        {
          "internalType": "bool",
          "name": "",
          "type": "bool"
        }
      ],
      "stateMutability": "view",
      "type": "function",
      "constant": true
    },
    {
      "inputs": [
        {
          "internalType": "uint256",
          "name": "",
          "type": "uint256"
        }
      ],
      "name": "lips",
      "outputs": [
        {
          "internalType": "string",
          "name": "name",
          "type": "string"
        },
        {
          "internalType": "uint256",
          "name": "id",
          "type": "uint256"
        },
        {
          "internalType": "uint256",
          "name": "dna",
          "type": "uint256"
        },
        {
          "internalType": "uint8",
          "name": "level",
          "type": "uint8"
        },
        {
          "internalType": "uint8",
          "name": "rarity",
          "type": "uint8"
        }
      ],
      "stateMutability": "view",
      "type": "function",
      "constant": true
    },
    {
      "inputs": [],
      "name": "name",
      "outputs": [
        {
          "internalType": "string",
          "name": "",
          "type": "string"
        }
      ],
      "stateMutability": "view",
      "type": "function",
      "constant": true
    },
    {
      "inputs": [],
      "name": "owner",
      "outputs": [
        {
          "internalType": "address",
          "name": "",
          "type": "address"
        }
      ],
      "stateMutability": "view",
      "type": "function",
      "constant": true
    },
    {
      "inputs": [
        {
          "internalType": "uint256",
          "name": "tokenId",
          "type": "uint256"
        }
      ],
      "name": "ownerOf",
      "outputs": [
        {
          "internalType": "address",
          "name": "",
          "type": "address"
        }
      ],
      "stateMutability": "view",
      "type": "function",
      "constant": true
    },
    {
      "inputs": [],
      "name": "renounceOwnership",
      "outputs": [],
      "stateMutability": "nonpayable",
      "type": "function"
    },
    {
      "inputs": [
        {
          "internalType": "address",
          "name": "from",
          "type": "address"
        },
        {
          "internalType": "address",
          "name": "to",
          "type": "address"
        },
        {
          "internalType": "uint256",
          "name": "tokenId",
          "type": "uint256"
        }
      ],
      "name": "safeTransferFrom",
      "outputs": [],
      "stateMutability": "nonpayable",
      "type": "function"
    },
    {
      "inputs": [
        {
          "internalType": "address",
          "name": "from",
          "type": "address"
        },
        {
          "internalType": "address",
          "name": "to",
          "type": "address"
        },
        {
          "internalType": "uint256",
          "name": "tokenId",
          "type": "uint256"
        },
        {
          "internalType": "bytes",
          "name": "data",
          "type": "bytes"
        }
      ],
      "name": "safeTransferFrom",
      "outputs": [],
      "stateMutability": "nonpayable",
      "type": "function"
    },
    {
      "inputs": [
        {
          "internalType": "address",
          "name": "operator",
          "type": "address"
        },
        {
          "internalType": "bool",
          "name": "approved",
          "type": "bool"
        }
      ],
      "name": "setApprovalForAll",
      "outputs": [],
      "stateMutability": "nonpayable",
      "type": "function"
    },
    {
      "inputs": [
        {
          "internalType": "bytes4",
          "name": "interfaceId",
          "type": "bytes4"
        }
      ],
      "name": "supportsInterface",
      "outputs": [
        {
          "internalType": "bool",
          "name": "",
          "type": "bool"
        }
      ],
      "stateMutability": "view",
      "type": "function",
      "constant": true
    },
    {
      "inputs": [],
      "name": "symbol",
      "outputs": [
        {
          "internalType": "string",
          "name": "",
          "type": "string"
        }
      ],
      "stateMutability": "view",
      "type": "function",
      "constant": true
    },
    {
      "inputs": [
        {
          "internalType": "uint256",
          "name": "tokenId",
          "type": "uint256"
        }
      ],
      "name": "tokenURI",
      "outputs": [
        {
          "internalType": "string",
          "name": "",
          "type": "string"
        }
      ],
      "stateMutability": "view",
      "type": "function",
      "constant": true
    },
    {
      "inputs": [
        {
          "internalType": "address",
          "name": "from",
          "type": "address"
        },
        {
          "internalType": "address",
          "name": "to",
          "type": "address"
        },
        {
          "internalType": "uint256",
          "name": "tokenId",
          "type": "uint256"
        }
      ],
      "name": "transferFrom",
      "outputs": [],
      "stateMutability": "nonpayable",
      "type": "function"
    },
    {
      "inputs": [
        {
          "internalType": "address",
          "name": "newOwner",
          "type": "address"
        }
      ],
      "name": "transferOwnership",
      "outputs": [],
      "stateMutability": "nonpayable",
      "type": "function"
    },
    {
      "inputs": [
        {
          "internalType": "uint256",
          "name": "_fee",
          "type": "uint256"
        }
      ],
      "name": "updateFee",
      "outputs": [],
      "stateMutability": "nonpayable",
      "type": "function"
    },
    {
      "inputs": [],
      "name": "withdraw",
      "outputs": [],
      "stateMutability": "payable",
      "type": "function",
      "payable": true
    },
    {
      "inputs": [
        {
          "internalType": "string",
          "name": "_name",
          "type": "string"
        }
      ],
      "name": "createRandomLip",
      "outputs": [],
      "stateMutability": "payable",
      "type": "function",
      "payable": true
    },
    {
      "inputs": [],
      "name": "getLips",
      "outputs": [
        {
          "components": [
            {
              "internalType": "string",
              "name": "name",
              "type": "string"
            },
            {
              "internalType": "uint256",
              "name": "id",
              "type": "uint256"
            },
            {
              "internalType": "uint256",
              "name": "dna",
              "type": "uint256"
            },
            {
              "internalType": "uint8",
              "name": "level",
              "type": "uint8"
            },
            {
              "internalType": "uint8",
              "name": "rarity",
              "type": "uint8"
            }
          ],
          "internalType": "struct LipToken.Lip[]",
          "name": "",
          "type": "tuple[]"
        }
      ],
      "stateMutability": "view",
      "type": "function",
      "constant": true
    },
    {
      "inputs": [
        {
          "internalType": "address",
          "name": "_owner",
          "type": "address"
        }
      ],
      "name": "getOwnerLips",
      "outputs": [
        {
          "components": [
            {
              "internalType": "string",
              "name": "name",
              "type": "string"
            },
            {
              "internalType": "uint256",
              "name": "id",
              "type": "uint256"
            },
            {
              "internalType": "uint256",
              "name": "dna",
              "type": "uint256"
            },
            {
              "internalType": "uint8",
              "name": "level",
              "type": "uint8"
            },
            {
              "internalType": "uint8",
              "name": "rarity",
              "type": "uint8"
            }
          ],
          "internalType": "struct LipToken.Lip[]",
          "name": "",
          "type": "tuple[]"
        }
      ],
      "stateMutability": "view",
      "type": "function",
      "constant": true
    },
    {
      "inputs": [
        {
          "internalType": "uint256",
          "name": "_lipId",
          "type": "uint256"
        }
      ],
      "name": "levelUp",
      "outputs": [],
      "stateMutability": "nonpayable",
      "type": "function"
    }
  ],
  "bytecode": "0x6080604052662386f26fc100006008553480156200001c57600080fd5b50604051620022f0380380620022f08339810160408190526200003f916200019e565b818160006200004f838262000297565b5060016200005e828262000297565b5050506200007b620000756200008360201b60201c565b62000087565b505062000363565b3390565b600680546001600160a01b038381166001600160a01b0319831681179093556040519116919082907f8be0079c531659141344cd1fd0a4f28419497f9722a3daafe3b4186f6b6457e090600090a35050565b634e487b7160e01b600052604160045260246000fd5b600082601f8301126200010157600080fd5b81516001600160401b03808211156200011e576200011e620000d9565b604051601f8301601f19908116603f01168101908282118183101715620001495762000149620000d9565b816040528381526020925086838588010111156200016657600080fd5b600091505b838210156200018a57858201830151818301840152908201906200016b565b600093810190920192909252949350505050565b60008060408385031215620001b257600080fd5b82516001600160401b0380821115620001ca57600080fd5b620001d886838701620000ef565b93506020850151915080821115620001ef57600080fd5b50620001fe85828601620000ef565b9150509250929050565b600181811c908216806200021d57607f821691505b6020821081036200023e57634e487b7160e01b600052602260045260246000fd5b50919050565b601f8211156200029257600081815260208120601f850160051c810160208610156200026d5750805b601f850160051c820191505b818110156200028e5782815560010162000279565b5050505b505050565b81516001600160401b03811115620002b357620002b3620000d9565b620002cb81620002c4845462000208565b8462000244565b602080601f831160018114620003035760008415620002ea5750858301515b600019600386901b1c1916600185901b1785556200028e565b600085815260208120601f198616915b82811015620003345788860151825594840194600190910190840162000313565b5085821015620003535787850151600019600388901b60f8161c191681555b5050505050600190811b01905550565b611f7d80620003736000396000f3fe6080604052600436106101405760003560e01c806370a08231116100b657806395d89b411161006f57806395d89b4114610385578063a22cb4651461039a578063b88d4fde146103ba578063c87b56dd146103da578063e985e9c5146103fa578063f2fde38b1461044357600080fd5b806370a08231146102c2578063715018a6146102f057806383b5daf7146103055780638c0b9c54146103275780638da5cb5b146103475780639012c4a81461036557600080fd5b806323b872dd1161010857806323b872dd146102165780633ccfd60b1461023657806342842e0e1461023e5780635ec163db1461025e5780636352211e1461028f578063698d640c146102af57600080fd5b806301ffc9a71461014557806306fdde031461017a578063081812fc1461019c578063095ea7b3146101d45780630ce90ec2146101f6575b600080fd5b34801561015157600080fd5b5061016561016036600461183e565b610463565b60405190151581526020015b60405180910390f35b34801561018657600080fd5b5061018f6104b5565b60405161017191906118ab565b3480156101a857600080fd5b506101bc6101b73660046118be565b610547565b6040516001600160a01b039091168152602001610171565b3480156101e057600080fd5b506101f46101ef3660046118f3565b61056e565b005b34801561020257600080fd5b506101f46102113660046118be565b610688565b34801561022257600080fd5b506101f461023136600461191d565b6106ff565b6101f4610730565b34801561024a57600080fd5b506101f461025936600461191d565b610788565b34801561026a57600080fd5b5061027e6102793660046118be565b6107a3565b604051610171959493929190611959565b34801561029b57600080fd5b506101bc6102aa3660046118be565b610879565b6101f46102bd366004611a1f565b6108d9565b3480156102ce57600080fd5b506102e26102dd366004611a68565b6108f4565b604051908152602001610171565b3480156102fc57600080fd5b506101f461097a565b34801561031157600080fd5b5061031a61098e565b6040516101719190611a83565b34801561033357600080fd5b5061031a610342366004611a68565b610ab4565b34801561035357600080fd5b506006546001600160a01b03166101bc565b34801561037157600080fd5b506101f46103803660046118be565b610cab565b34801561039157600080fd5b5061018f610cb8565b3480156103a657600080fd5b506101f46103b5366004611b21565b610cc7565b3480156103c657600080fd5b506101f46103d5366004611b5d565b610cd2565b3480156103e657600080fd5b5061018f6103f53660046118be565b610d0a565b34801561040657600080fd5b50610165610415366004611bd9565b6001600160a01b03918216600090815260056020908152604080832093909416825291909152205460ff1690565b34801561044f57600080fd5b506101f461045e366004611a68565b610d7e565b60006001600160e01b031982166380ac58cd60e01b148061049457506001600160e01b03198216635b5e139f60e01b145b806104af57506301ffc9a760e01b6001600160e01b03198316145b92915050565b6060600080546104c490611c0c565b80601f01602080910402602001604051908101604052809291908181526020018280546104f090611c0c565b801561053d5780601f106105125761010080835404028352916020019161053d565b820191906000526020600020905b81548152906001019060200180831161052057829003601f168201915b5050505050905090565b600061055282610df4565b506000908152600460205260409020546001600160a01b031690565b600061057982610879565b9050806001600160a01b0316836001600160a01b0316036105eb5760405162461bcd60e51b815260206004820152602160248201527f4552433732313a20617070726f76616c20746f2063757272656e74206f776e656044820152603960f91b60648201526084015b60405180910390fd5b336001600160a01b038216148061060757506106078133610415565b6106795760405162461bcd60e51b815260206004820152603d60248201527f4552433732313a20617070726f76652063616c6c6572206973206e6f7420746f60448201527f6b656e206f776e6572206f7220617070726f76656420666f7220616c6c00000060648201526084016105e2565b6106838383610e53565b505050565b3361069282610879565b6001600160a01b0316146106a557600080fd5b6000600982815481106106ba576106ba611c46565b6000918252602082206003600490920201908101805491935060ff909116916106e283611c72565b91906101000a81548160ff021916908360ff160217905550505050565b6107093382610ec1565b6107255760405162461bcd60e51b81526004016105e290611c91565b610683838383610f40565b6107386110a4565b600061074c6006546001600160a01b031690565b6040519091506001600160a01b038216904780156108fc02916000818181858888f19350505050158015610784573d6000803e3d6000fd5b5050565b61068383838360405180602001604052806000815250610cd2565b600981815481106107b357600080fd5b90600052602060002090600402016000915090508060000180546107d690611c0c565b80601f016020809104026020016040519081016040528092919081815260200182805461080290611c0c565b801561084f5780601f106108245761010080835404028352916020019161084f565b820191906000526020600020905b81548152906001019060200180831161083257829003601f168201915b50505050600183015460028401546003909401549293909290915060ff8082169161010090041685565b6000818152600260205260408120546001600160a01b0316806104af5760405162461bcd60e51b8152602060048201526018602482015277115490cdcc8c4e881a5b9d985b1a59081d1bdad95b88125160421b60448201526064016105e2565b6008543410156108e857600080fd5b6108f1816110fe565b50565b60006001600160a01b03821661095e5760405162461bcd60e51b815260206004820152602960248201527f4552433732313a2061646472657373207a65726f206973206e6f7420612076616044820152683634b21037bbb732b960b91b60648201526084016105e2565b506001600160a01b031660009081526003602052604090205490565b6109826110a4565b61098c600061123c565b565b60606009805480602002602001604051908101604052809291908181526020016000905b82821015610aab57838290600052602060002090600402016040518060a00160405290816000820180546109e590611c0c565b80601f0160208091040260200160405190810160405280929190818152602001828054610a1190611c0c565b8015610a5e5780601f10610a3357610100808354040283529160200191610a5e565b820191906000526020600020905b815481529060010190602001808311610a4157829003601f168201915b50505091835250506001828101546020808401919091526002840154604084015260039093015460ff808216606085015261010090910416608090920191909152918352920191016109b2565b50505050905090565b60606000610ac1836108f4565b67ffffffffffffffff811115610ad957610ad9611993565b604051908082528060200260200182016040528015610b4257816020015b610b2f6040518060a00160405280606081526020016000815260200160008152602001600060ff168152602001600060ff1681525090565b815260200190600190039081610af75790505b5090506000805b600954811015610ca257846001600160a01b0316610b6682610879565b6001600160a01b031603610c905760098181548110610b8757610b87611c46565b90600052602060002090600402016040518060a0016040529081600082018054610bb090611c0c565b80601f0160208091040260200160405190810160405280929190818152602001828054610bdc90611c0c565b8015610c295780601f10610bfe57610100808354040283529160200191610c29565b820191906000526020600020905b815481529060010190602001808311610c0c57829003601f168201915b5050509183525050600182015460208201526002820154604082015260039091015460ff8082166060840152610100909104166080909101528351849084908110610c7657610c76611c46565b60200260200101819052508180610c8c90611cde565b9250505b80610c9a81611cde565b915050610b49565b50909392505050565b610cb36110a4565b600855565b6060600180546104c490611c0c565b61078433838361128e565b610cdc3383610ec1565b610cf85760405162461bcd60e51b81526004016105e290611c91565b610d048484848461135c565b50505050565b6060610d1582610df4565b6000610d2c60408051602081019091526000815290565b90506000815111610d4c5760405180602001604052806000815250610d77565b80610d568461138f565b604051602001610d67929190611cf7565b6040516020818303038152906040525b9392505050565b610d866110a4565b6001600160a01b038116610deb5760405162461bcd60e51b815260206004820152602660248201527f4f776e61626c653a206e6577206f776e657220697320746865207a65726f206160448201526564647265737360d01b60648201526084016105e2565b6108f18161123c565b6000818152600260205260409020546001600160a01b03166108f15760405162461bcd60e51b8152602060048201526018602482015277115490cdcc8c4e881a5b9d985b1a59081d1bdad95b88125160421b60448201526064016105e2565b600081815260046020526040902080546001600160a01b0319166001600160a01b0384169081179091558190610e8882610879565b6001600160a01b03167f8c5be1e5ebec7d5bd14f71427d1e84f3dd0314c0f7b2291e5b200ac8c7c3b92560405160405180910390a45050565b600080610ecd83610879565b9050806001600160a01b0316846001600160a01b03161480610f1457506001600160a01b0380821660009081526005602090815260408083209388168352929052205460ff165b80610f385750836001600160a01b0316610f2d84610547565b6001600160a01b0316145b949350505050565b826001600160a01b0316610f5382610879565b6001600160a01b031614610f795760405162461bcd60e51b81526004016105e290611d26565b6001600160a01b038216610fdb5760405162461bcd60e51b8152602060048201526024808201527f4552433732313a207472616e7366657220746f20746865207a65726f206164646044820152637265737360e01b60648201526084016105e2565b826001600160a01b0316610fee82610879565b6001600160a01b0316146110145760405162461bcd60e51b81526004016105e290611d26565b600081815260046020908152604080832080546001600160a01b03199081169091556001600160a01b0387811680865260038552838620805460001901905590871680865283862080546001019055868652600290945282852080549092168417909155905184937fddf252ad1be2c89b69c2b068fc378daa952ba7f163c4a11628f55a4df523b3ef91a4505050565b6006546001600160a01b0316331461098c5760405162461bcd60e51b815260206004820181905260248201527f4f776e61626c653a2063616c6c6572206973206e6f7420746865206f776e657260448201526064016105e2565b600061110a6064611422565b9050600061111e662386f26fc10000611422565b6040805160a081018252858152600754602082015290810182905260016060820181905260ff851660808301526009805491820181556000528151929350909182916004027f6e1540171b6c0c960b71a7020d9f60077f6af931a8bbf590da0223dacf75c7af019081906111929082611db9565b50602082015160018201556040820151600282015560608201516003909101805460809093015160ff9081166101000261ffff199094169216919091179190911790556007546111e3903390611477565b600754604080519182526020820184905233917f24d2d558f98bdd9d21339e119fc0b03e213c7d05affd838ac2ee136d90e3bbeb910160405180910390a26007805490600061123183611cde565b919050555050505050565b600680546001600160a01b038381166001600160a01b0319831681179093556040519116919082907f8be0079c531659141344cd1fd0a4f28419497f9722a3daafe3b4186f6b6457e090600090a35050565b816001600160a01b0316836001600160a01b0316036112ef5760405162461bcd60e51b815260206004820152601960248201527f4552433732313a20617070726f766520746f2063616c6c65720000000000000060448201526064016105e2565b6001600160a01b03838116600081815260056020908152604080832094871680845294825291829020805460ff191686151590811790915591519182527f17307eab39ab6107e8899845ad3d59bd9653f200f220920489ca2b5937696c31910160405180910390a3505050565b611367848484610f40565b61137384848484611491565b610d045760405162461bcd60e51b81526004016105e290611e79565b6060600061139c83611592565b600101905060008167ffffffffffffffff8111156113bc576113bc611993565b6040519080825280601f01601f1916602001820160405280156113e6576020820181803683370190505b5090508181016020015b600019016f181899199a1a9b1b9c1cb0b131b232b360811b600a86061a8153600a85049450846113f057509392505050565b600080423360405160200161145392919091825260601b6bffffffffffffffffffffffff1916602082015260340190565b60408051601f1981840301815291905280516020909101209050610d778382611ecb565b61078482826040518060200160405280600081525061166a565b60006001600160a01b0384163b1561158757604051630a85bd0160e11b81526001600160a01b0385169063150b7a02906114d5903390899088908890600401611eed565b6020604051808303816000875af1925050508015611510575060408051601f3d908101601f1916820190925261150d91810190611f2a565b60015b61156d573d80801561153e576040519150601f19603f3d011682016040523d82523d6000602084013e611543565b606091505b5080516000036115655760405162461bcd60e51b81526004016105e290611e79565b805181602001fd5b6001600160e01b031916630a85bd0160e11b149050610f38565b506001949350505050565b60008072184f03e93ff9f4daa797ed6e38ed64bf6a1f0160401b83106115d15772184f03e93ff9f4daa797ed6e38ed64bf6a1f0160401b830492506040015b6d04ee2d6d415b85acef810000000083106115fd576d04ee2d6d415b85acef8100000000830492506020015b662386f26fc10000831061161b57662386f26fc10000830492506010015b6305f5e1008310611633576305f5e100830492506008015b612710831061164757612710830492506004015b60648310611659576064830492506002015b600a83106104af5760010192915050565b611674838361169d565b6116816000848484611491565b6106835760405162461bcd60e51b81526004016105e290611e79565b6001600160a01b0382166116f35760405162461bcd60e51b815260206004820181905260248201527f4552433732313a206d696e7420746f20746865207a65726f206164647265737360448201526064016105e2565b6000818152600260205260409020546001600160a01b0316156117585760405162461bcd60e51b815260206004820152601c60248201527f4552433732313a20746f6b656e20616c7265616479206d696e7465640000000060448201526064016105e2565b6000818152600260205260409020546001600160a01b0316156117bd5760405162461bcd60e51b815260206004820152601c60248201527f4552433732313a20746f6b656e20616c7265616479206d696e7465640000000060448201526064016105e2565b6001600160a01b038216600081815260036020908152604080832080546001019055848352600290915280822080546001600160a01b0319168417905551839291907fddf252ad1be2c89b69c2b068fc378daa952ba7f163c4a11628f55a4df523b3ef908290a45050565b6001600160e01b0319811681146108f157600080fd5b60006020828403121561185057600080fd5b8135610d7781611828565b60005b8381101561187657818101518382015260200161185e565b50506000910152565b6000815180845261189781602086016020860161185b565b601f01601f19169290920160200192915050565b602081526000610d77602083018461187f565b6000602082840312156118d057600080fd5b5035919050565b80356001600160a01b03811681146118ee57600080fd5b919050565b6000806040838503121561190657600080fd5b61190f836118d7565b946020939093013593505050565b60008060006060848603121561193257600080fd5b61193b846118d7565b9250611949602085016118d7565b9150604084013590509250925092565b60a08152600061196c60a083018861187f565b602083019690965250604081019390935260ff918216606084015216608090910152919050565b634e487b7160e01b600052604160045260246000fd5b600067ffffffffffffffff808411156119c4576119c4611993565b604051601f8501601f19908116603f011681019082821181831017156119ec576119ec611993565b81604052809350858152868686011115611a0557600080fd5b858560208301376000602087830101525050509392505050565b600060208284031215611a3157600080fd5b813567ffffffffffffffff811115611a4857600080fd5b8201601f81018413611a5957600080fd5b610f38848235602084016119a9565b600060208284031215611a7a57600080fd5b610d77826118d7565b60006020808301818452808551808352604092508286019150828160051b87010184880160005b83811015611b1357603f19898403018552815160a08151818652611ad08287018261187f565b838b0151878c0152898401518a88015260608085015160ff9081169189019190915260809485015116939096019290925250509386019390860190600101611aaa565b509098975050505050505050565b60008060408385031215611b3457600080fd5b611b3d836118d7565b915060208301358015158114611b5257600080fd5b809150509250929050565b60008060008060808587031215611b7357600080fd5b611b7c856118d7565b9350611b8a602086016118d7565b925060408501359150606085013567ffffffffffffffff811115611bad57600080fd5b8501601f81018713611bbe57600080fd5b611bcd878235602084016119a9565b91505092959194509250565b60008060408385031215611bec57600080fd5b611bf5836118d7565b9150611c03602084016118d7565b90509250929050565b600181811c90821680611c2057607f821691505b602082108103611c4057634e487b7160e01b600052602260045260246000fd5b50919050565b634e487b7160e01b600052603260045260246000fd5b634e487b7160e01b600052601160045260246000fd5b600060ff821660ff8103611c8857611c88611c5c565b60010192915050565b6020808252602d908201527f4552433732313a2063616c6c6572206973206e6f7420746f6b656e206f776e6560408201526c1c881bdc88185c1c1c9bdd9959609a1b606082015260800190565b600060018201611cf057611cf0611c5c565b5060010190565b60008351611d0981846020880161185b565b835190830190611d1d81836020880161185b565b01949350505050565b60208082526025908201527f4552433732313a207472616e736665722066726f6d20696e636f72726563742060408201526437bbb732b960d91b606082015260800190565b601f82111561068357600081815260208120601f850160051c81016020861015611d925750805b601f850160051c820191505b81811015611db157828155600101611d9e565b505050505050565b815167ffffffffffffffff811115611dd357611dd3611993565b611de781611de18454611c0c565b84611d6b565b602080601f831160018114611e1c5760008415611e045750858301515b600019600386901b1c1916600185901b178555611db1565b600085815260208120601f198616915b82811015611e4b57888601518255948401946001909101908401611e2c565b5085821015611e695787850151600019600388901b60f8161c191681555b5050505050600190811b01905550565b60208082526032908201527f4552433732313a207472616e7366657220746f206e6f6e20455243373231526560408201527131b2b4bb32b91034b6b83632b6b2b73a32b960711b606082015260800190565b600082611ee857634e487b7160e01b600052601260045260246000fd5b500690565b6001600160a01b0385811682528416602082015260408101839052608060608201819052600090611f209083018461187f565b9695505050505050565b600060208284031215611f3c57600080fd5b8151610d778161182856fea2646970667358221220f0de4beebf1247c4dd74db1670e48cccdacfc1426fa3ae8adc7ea3b8a79b80fc64736f6c63430008130033",
  "immutableReferences": {},
  "source": "// SPDX-License-Identifier: MIT\r\n\r\npragma solidity ^0.8.0;\r\n\r\n// import \"@openzeppelin/contracts/token/ERC721/ERC721.sol\";\r\nimport \"@openzeppelin/contracts/token/ERC721/ERC721.sol\";\r\nimport \"@openzeppelin/contracts/access/Ownable.sol\";\r\n\r\ncontract LipToken is ERC721, Ownable {\r\n  constructor(string memory _name, string memory _symbol)\r\n    ERC721(_name, _symbol)\r\n  {}\r\n\r\n  uint256 COUNTER;\r\n\r\n  uint256 fee = 0.01 ether;\r\n\r\n  struct Lip {\r\n    string name;\r\n    uint256 id;\r\n    uint256 dna;\r\n    uint8 level;\r\n    uint8 rarity;\r\n  }\r\n\r\n  Lip[] public lips;\r\n\r\n  event NewLip(address indexed owner, uint256 id, uint256 dna);\r\n\r\n  // Helpers\r\n  function _createRandomNum(uint256 _mod) internal view returns (uint256) {\r\n    uint256 randomNum = uint256(\r\n      keccak256(abi.encodePacked(block.timestamp, msg.sender))\r\n    );\r\n    return randomNum % _mod;\r\n  }\r\n\r\n  function updateFee(uint256 _fee) external onlyOwner {\r\n    fee = _fee;\r\n  }\r\n\r\n  function withdraw() external payable onlyOwner {\r\n    address payable _owner = payable(owner());\r\n    _owner.transfer(address(this).balance);\r\n  }\r\n\r\n  // Creation\r\n  function _createLip(string memory _name) internal {\r\n    uint8 randRarity = uint8(_createRandomNum(100));\r\n    uint256 randDna = _createRandomNum(10**16);\r\n    Lip memory newLip = Lip(_name, COUNTER, randDna, 1, randRarity);\r\n    lips.push(newLip);\r\n    _safeMint(msg.sender, COUNTER);\r\n    emit NewLip(msg.sender, COUNTER, randDna);\r\n    COUNTER++;\r\n  }\r\n\r\n  function createRandomLip(string memory _name) public payable {\r\n    require(msg.value >= fee);\r\n    _createLip(_name);\r\n  }\r\n\r\n  // Getters\r\n  function getLips() public view returns (Lip[] memory) {\r\n    return lips;\r\n  }\r\n\r\n  function getOwnerLips(address _owner) public view returns (Lip[] memory) {\r\n    Lip[] memory result = new Lip[](balanceOf(_owner));\r\n    uint256 counter = 0;\r\n    for (uint256 i = 0; i < lips.length; i++) {\r\n      if (ownerOf(i) == _owner) {\r\n        result[counter] = lips[i];\r\n        counter++;\r\n      }\r\n    }\r\n    return result;\r\n  }\r\n\r\n  // Actions\r\n  function levelUp(uint256 _lipId) public {\r\n    require(ownerOf(_lipId) == msg.sender);\r\n    Lip storage lip = lips[_lipId];\r\n    lip.level++;\r\n  }\r\n}",
  "sourcePath": "C:\\Users\\shrut\\game\\contracts\\LipToken.sol",
  "compiler": {
    "name": "solc",
    "version": "0.8.19+commit.7dd6d404.Emscripten.clang"
  },
  "schemaVersion": "3.4.13",
  "updatedAt": "2023-05-22T17:55:04.466Z",
  "networkType": "ethereum",
  "devdoc": {
    "events": {
      "Approval(address,address,uint256)": {
        "details": "Emitted when `owner` enables `approved` to manage the `tokenId` token."
      },
      "ApprovalForAll(address,address,bool)": {
        "details": "Emitted when `owner` enables or disables (`approved`) `operator` to manage all of its assets."
      },
      "Transfer(address,address,uint256)": {
        "details": "Emitted when `tokenId` token is transferred from `from` to `to`."
      }
    },
    "kind": "dev",
    "methods": {
      "approve(address,uint256)": {
        "details": "See {IERC721-approve}."
      },
      "balanceOf(address)": {
        "details": "See {IERC721-balanceOf}."
      },
      "getApproved(uint256)": {
        "details": "See {IERC721-getApproved}."
      },
      "isApprovedForAll(address,address)": {
        "details": "See {IERC721-isApprovedForAll}."
      },
      "name()": {
        "details": "See {IERC721Metadata-name}."
      },
      "owner()": {
        "details": "Returns the address of the current owner."
      },
      "ownerOf(uint256)": {
        "details": "See {IERC721-ownerOf}."
      },
      "renounceOwnership()": {
        "details": "Leaves the contract without owner. It will not be possible to call `onlyOwner` functions anymore. Can only be called by the current owner. NOTE: Renouncing ownership will leave the contract without an owner, thereby removing any functionality that is only available to the owner."
      },
      "safeTransferFrom(address,address,uint256)": {
        "details": "See {IERC721-safeTransferFrom}."
      },
      "safeTransferFrom(address,address,uint256,bytes)": {
        "details": "See {IERC721-safeTransferFrom}."
      },
      "setApprovalForAll(address,bool)": {
        "details": "See {IERC721-setApprovalForAll}."
      },
      "supportsInterface(bytes4)": {
        "details": "See {IERC165-supportsInterface}."
      },
      "symbol()": {
        "details": "See {IERC721Metadata-symbol}."
      },
      "tokenURI(uint256)": {
        "details": "See {IERC721Metadata-tokenURI}."
      },
      "transferFrom(address,address,uint256)": {
        "details": "See {IERC721-transferFrom}."
      },
      "transferOwnership(address)": {
        "details": "Transfers ownership of the contract to a new account (`newOwner`). Can only be called by the current owner."
      }
    },
    "version": 1
  },
  "userdoc": {
    "kind": "user",
    "methods": {},
    "version": 1
  }
}